:020000040000FA
:100000000A128A11F52F00308A000408840A820738
:10001000003420344B34683461346C3465346434D7
:1000200020344D34613467346434793400342034FE
:10003000443465346534703442346C34753465341A
:100040000034203431343234333400342034343406
:06005000353436340034A3
:100B820008340A128A11D4250A128A118316031311
:100B9200111408000A128A11D4250A128A11831626
:100BA200031311150800831603131419D92DDA2D16
:100BB200D42D11081F39031DDF2DE02DD42D08007F
:100BC200E82D0130F0020030031CF103F10270083D
:100BD2007104031DED2DEE2DE22D08003830831235
:100BE200031394000F3083160313910094012730EE
:100BF2009300871507160800F0000A128A11D425FF
:100C02000A128A1170088312031393008C1D0A2E94
:100C12000B2E072E8C110800F1000A128A11C22530
:100C22000A128A117A080A128A11FD250A128A11F9
:100C320071087C040A128A11FD250A128A110A120D
:100C42008A11CB250A128A110800F3007B08FF00E3
:100C52007F08F304730804380A128A110D260A1257
:100C62008A117308FB390A128A110D260A128A1197
:100C72004230F200F20B3B2E00000800F500FB01AF
:100C82007508F0390A128A1126260A128A11750885
:100C9200F40003300310F40DFF3E031D4B2E03102E
:100CA200740DF0390A128A1126260A128A110800D6
:100CB200F500FB01FB0A7508F0390A128A11262693
:100CC2000A128A117508F40003300310F40DFF3E76
:100CD200031D662E0310740DF0390A128A1126269E
:100CE2000A128A110800F800F601F7018B2E760825
:100CF200780784000A128A1103200A128A110A1242
:100D02008A1159260A128A110130F6070318F70AC6
:100D12000030F7077608780784000A128A11032048
:100D22000A128A11003A031D972E982E782E080077
:100D3200F601F60A01300A128A1123270A128A11D1
:100D420001300A128A1174260A128A11F601F60A71
:100D520002300A128A1123270A128A110F300A124C
:100D62008A1174260A128A11F601F60A03300A124F
:100D72008A1123270A128A1119300A128A1174263B
:100D82000A128A110800F601F60A01300A128A11C3
:100D920023270A128A1101300A128A1174260A12B2
:100DA2008A11F601F60A02300A128A1123270A1260
:100DB2008A110F300A128A1174260A128A11F60158
:100DC200F60A03300A128A1123270A128A111E30E8
:100DD2000A128A1174260A128A1108008316031352
:100DE20006100A128A11EF250A128A114E300A12CF
:100DF2008A1159270A128A110A128A1199260A128D
:100E02008A110A128A11C4260A128A118312031342
:100E120006145030F000C330F1000A128A11E125A5
:100E22000A128A118312031306105030F000C330E5
:100E3200F1000A128A11E1250A128A11072F0A12F9
:100E42008A110028F900452F7608BF3E0A128A113E
:100E52003F260A128A11582F7608933E0A128A11E7
:100E62003F260A128A11582F7608D33E0A128A1197
:100E72003F260A128A11582F76087F3E0A128A11DB
:100E82003F260A128A11582F7908F700F8017808CC
:100E9200003A03194D2F3D2F7708023A0319252FE7
:100EA200013A03192D2F073A0319352F3D2F080058
:100EB200F9007908FF007F08FA0000300A128A114F
:100EC2000D260A128A119C30F700D730F600F60B75
:100ED200682FF70B682F03300A128A113F260A1275
:100EE2008A111A30F700F830F600F60B762FF70B5E
:100EF200762F000003300A128A113F260A128A1145
:100F02001A30F700F830F600F60B852FF70B852F15
:100F1200000003300A128A113F260A128A111A307F
:100F2200F700F830F600F60B942FF70B942F000021
:100F320002300A128A113F260A128A111A30F70069
:100F4200F830F600F60BA32FF70BA32F0000283082
:100F52000A128A113F260A128A110230F80004305E
:100F6200F700BA30F600F60BB42FF70BB42FF80BDC
:100F7200B42F00000C300A128A113F260A128A117D
:100F82000230F8000430F700BA30F600F60BC72F33
:100F9200F70BC72FF80BC72F000001300A128A1176
:100FA2003F260A128A110230F8000430F700BA30E4
:100FB200F600F60BDA2FF70BDA2FF80BDA2F000018
:100FC20006300A128A113F260A128A110230F800EC
:100FD2000430F700BA30F600F60BED2FF70BED2FC9
:100FE200F80BED2F000008000A128A11C1250A121F
:0E0FF2008A11FC00FB0183010A128A11EF2E06
:02400E00FE3F73
:00000001FF
