:020000040000FA
:100000000A128A11F52F00308A000408840A820738
:10001000003420343A342934293429342934293419
:1000200029342934293429342934293429342934E8
:1000300029342934003420343234323432343234E6
:100040003234323432343234323432343234323480
:10005000003420346334633463346334633463348E
:10006000633463346334633400342034BB34AF34DA
:0200700000345A
:100BC80008340A128A1104260A128A11831603139A
:100BD800111408000A128A1104260A128A118316AF
:100BE8000313111508002830831203139400831689
:100BF8000313910194012730930087150716080005
:100C0800831603131419092E0A2E042E11081F39EE
:100C1800031D0F2E102E042E0800182E0130F0028E
:100C28000030031CF103F10270087104031D1D2E2E
:100C38001E2E122E0800F0000A128A1104260A122B
:100C48008A1170088312031393008C1D2C2E2D2EED
:100C5800292E8C110800F1000A128A11E5250A12C2
:100C68008A117A080A128A111F260A128A11710833
:100C78007C040A128A111F260A128A110A128A1182
:100C8800EE250A128A110800F3007B08FF007F088E
:100C9800F304730804380A128A112F260A128A11DB
:100CA8007308FB390A128A112F260A128A11423058
:100CB800F200F20B5D2E00000800F500FB0175083C
:100CC800F0390A128A1148260A128A117508F400A6
:100CD80003300310F40DFF3E031D6D2E0310740D39
:100CE800F0390A128A1148260A128A110800F500FA
:100CF800FB01FB0A7508F0390A128A1148260A1204
:100D08008A117508F40003300310F40DFF3E031D2B
:100D1800882E0310740DF0390A128A1148260A1217
:100D28008A110800F800F601F701AD2E7608780759
:100D380084000A128A1103200A128A110A128A11DF
:100D48007B260A128A110130F6070318F70A0030C9
:100D5800F7077608780784000A128A1103200A1216
:100D68008A11003A031DB92EBA2E9A2E080083164E
:100D7800031306100A128A11F7250A128A114E3037
:100D88000A128A1159270A128A110A128A1120276F
:100D98000A128A118312031306145030F000C3306C
:100DA800F1000A128A1111260A128A1183120313FA
:100DB80006105030F000C330F1000A128A111126D3
:100DC8000A128A11CE2E0A128A110028F9000C2F55
:100DD8007608BF3E0A128A1161260A128A111F2F4D
:100DE8007608933E0A128A1161260A128A111F2F69
:100DF8007608D33E0A128A1161260A128A111F2F19
:100E080076087F3E0A128A1161260A128A111F2F5C
:100E18007908F700F8017808003A0319142F042F0D
:100E28007708023A0319EC2E013A0319F42E073A0F
:100E38000319FC2E042F0800F601F60A01300A12E5
:100E48008A11EA260A128A112D300A128A11962668
:100E58000A128A11F601F60A02300A128A11EA26E3
:100E68000A128A1113300A128A1196260A128A1156
:100E7800F601F60A03300A128A11EA260A128A11C2
:100E880021300A128A1196260A128A11F601F60AE8
:100E980004300A128A11EA260A128A1101300A124B
:100EA8008A1196260A128A110800F9007908FF00AB
:100EB8007F08FA0000300A128A112F260A128A11B6
:100EC8009C30F700D730F600F60B682FF70B682F29
:100ED80003300A128A1161260A128A111A30F700A1
:100EE800F830F600F60B762FF70B762F000003305C
:100EF8000A128A1161260A128A111A30F700F8308C
:100F0800F600F60B852FF70B852F000003300A1229
:100F18008A1161260A128A111A30F700F830F60091
:100F2800F60B942FF70B942F000002300A128A1147
:100F380061260A128A111A30F700F830F600F60B0B
:100F4800A32FF70BA32F000028300A128A1161265D
:100F58000A128A110230F8000430F700BA30F6009D
:100F6800F60BB42FF70BB42FF80BB42F00000C308E
:100F78000A128A1161260A128A110230F800043016
:100F8800F700BA30F600F60BC72FF70BC72FF80B90
:100F9800C72F000001300A128A1161260A128A112D
:100FA8000230F8000430F700BA30F600F60BDA2FFA
:100FB800F70BDA2FF80BDA2F000006300A128A1125
:100FC80061260A128A110230F8000430F700BA309C
:100FD800F600F60BED2FF70BED2FF80BED2F0000B9
:100FE80008000A128A11E4250A128A11FC00FB0182
:080FF80083010A128A11BB2ECD
:02400E00FE3F73
:00000001FF
