:020000040000FA
:100000000A128A11F52F00308A000408840A820738
:10001000003420344B34683461346C3465346434D7
:1000200020344D34613467346434793400342034FE
:10003000443465346534703442346C34753465341A
:0200400000348A
:100C5E0008340A128A114F260A128A1183160313B8
:100C6E00111408000A128A114F260A128A118316CD
:100C7E0003131115080028308312031394008316F2
:100C8E00031391019401273093008715071608006E
:100C9E00831603131419542E552E4F2E11081F3977
:100CAE00031D5A2E5B2E4F2E0800F0000A128A11D9
:100CBE004F260A128A1170088312031393008C1D9B
:100CCE00692E6A2E662E8C110800F1000A128A1106
:100CDE0030260A128A117A080A128A115C260A1222
:100CEE008A1171087C040A128A115C260A128A1172
:100CFE000A128A1139260A128A110800F3007B089B
:100D0E00FF007F08F304730804380A128A116C2658
:100D1E000A128A117308FB390A128A116C260A12FA
:100D2E008A114230F200F20B9A2E00000800F500F4
:100D3E00FB017508F0390A128A1185260A128A11EA
:100D4E007508F40003300310F40DFF3E031DAA2EA8
:100D5E000310740DF0390A128A1185260A128A11AF
:100D6E000800F500FB01FB0A7508F0390A128A111A
:100D7E0085260A128A117508F40003300310F40D4B
:100D8E00FF3E031DC52E0310740DF0390A128A1191
:100D9E0085260A128A110800F800F601F701EA2EDC
:100DAE007608780784000A128A1103200A128A1123
:100DBE000A128A11B8260A128A110130F607031890
:100DCE00F70A0030F7077608780784000A128A11AE
:100DDE0003200A128A11003A031DF62EF72ED72E83
:100DEE0008000A128A1142260A128A114E300A127D
:100DFE008A1159270A128A11F601F60A01300A12CF
:100E0E008A1123270A128A1101300A128A11D32657
:100E1E000A128A11F601F60A02300A128A112327E3
:100E2E000A128A110F300A128A11D3260A128A1157
:100E3E001F2F0A128A110028F900452F7608BF3E8F
:100E4E000A128A119E260A128A11582F7608933E8C
:100E5E000A128A119E260A128A11582F7608D33E3C
:100E6E000A128A119E260A128A11582F76087F3E80
:100E7E000A128A119E260A128A11582F7908F70033
:100E8E00F8017808003A03194D2F3D2F7708023AE2
:100E9E000319252F013A03192D2F073A0319352F60
:100EAE003D2F0800F9007908FF007F08FA00003096
:100EBE000A128A116C260A128A119C30F700D7305A
:100ECE00F600F60B682FF70B682F03300A128A1103
:100EDE009E260A128A111A30F700F830F600F60B29
:100EEE00762FF70B762F000003300A128A119E26FA
:100EFE000A128A111A30F700F830F600F60B852F19
:100F0E00F70B852F000003300A128A119E260A1253
:100F1E008A111A30F700F830F600F60B942FF70B03
:100F2E00942F000002300A128A119E260A128A118C
:100F3E001A30F700F830F600F60BA32FF70BA32F9D
:100F4E00000028300A128A119E260A128A110230D7
:100F5E00F8000430F700BA30F600F60BB42FF70B9A
:100F6E00B42FF80BB42F00000C300A128A119E26F3
:100F7E000A128A110230F8000430F700BA30F60077
:100F8E00F60BC72FF70BC72FF80BC72F000001303A
:100F9E000A128A119E260A128A110230F8000430B3
:100FAE00F700BA30F600F60BDA2FF70BDA2FF80B44
:100FBE00DA2F000006300A128A119E260A128A11B2
:100FCE000230F8000430F700BA30F600F60BED2FC1
:100FDE00F70BED2FF80BED2F000008000A128A1107
:100FEE002F260A128A11FC00FB0183010A128A11B4
:020FFE00F82ECB
:00000001FF
